:020000020000FC
:10000000B0C0FFC39981999999FFFF83998399990A
:1000100083FFFFC39F9F9F9FC3FFFF839999999978
:1000200083FFFF839F879F9F83FFFF819F9F879F02
:100030009FFFFFC19F9F9199C1FFFF999981999956
:1000400099FFFFC3E7E7E7E7C3FFFF83E7E7E7E7DA
:100050008FFFFF999387879399FFFF9F9F9F9F9F94
:1000600083FFFFBD9981999999FFFFB9998991996A
:100070009DFFFFC399999999C3FFFF839999839F26
:100080009FFFFFC39D9D9993C5FFFF839999839718
:1000900099FFFFC39FC3F9F9C3FFFF81E7E7E7E7D4
:1000A000E7FFFF9999999999C3FFFF999999DBC344
:1000B000E7FFFF9999998199BDFFFF99C3E7E7C3CE
:1000C00099FFFF9999C3E7E7E7FFFF81F9F3E7CFCE
:1000D00081FFFFCFCFCFEFFFEFFFFFFFFFFFFFCF8E
:1000E000CFFFFFFFFFC3C3FFFFFFFFFFFFFFFFFFC8
:1000F000FFFFFFE7CFCFCFCFE7FFFFE7F3F3F3F348
:10010000E7FFDBE7812400DBA57EE7C3812400DB7A
:10011000A55AFFFFDBE7E7DBFFFF7EA5C38181C3B5
:10012000A57E240081000081002400980058E0B8DA
:10013000308820209840683090E89870E8788800EF
:10014000209870E8F06070A08840184090F8E800AF
:100150006818E890A008C8208870E8F010A8008807
:10016000F8D04FED4DBF4FEF4ABB47BB41BB479A5D
:10017000469844B7477F44BF41B5486141BD4427D5
:1001800041BD93D089D040E243D048E2552777D093
:10019000E9D040E23DD06627F1E0EAE25527E60FDC
:1001A000F51F44916CD0D9D063956630A9F744EB24
:1001B0002FD044EB2DD079D06FD040E329D040E050
:1001C00051E05DD0D4D048EC23D048EC21D06DD0A4
:1001D00063D040E31DD048E051E051D0CDD048EC91
:1001E00017D048EC15D061D057D040E211D0662727
:1001F000F1E0E0E35527E60FF51F449140D0ADD084
:1002000063956233A9F746E903D046E901D0B9CF37
:100210005F931160582D19D03061572D16D0326080
:10022000562D13D03062552D10D02061542D0DD095
:100230003160532D0AD02460522D07D02068512DF3
:1002400004D04A9531F75F91089557FD216056FD1E
:10025000226055FD206254FD126053FD206452FD62
:10026000346051FD386050FD28601BBB28BB32BB99
:1002700011272227332755275A95F1F70895DD27AF
:10028000C1E1F0E0E2E0E40FF51F48E0C8953196E7
:100290000A924A95D9F70895802E7F2C6E2C5D2CFA
:1002A0004C2C3B2C2A2C192C08954FEF042FF42EA4
:1002B000E42ED42EC42EB42EA42E942E0895001F06
:1002C000881CFF1C771CEE1C661CDD1C551CCC1CFE
:1002D000441CBB1C331CAA1C221C991C111C4AE088
:1002E00097DF089507958794F7947794E794679438
:1002F000D7945794C7944794B7943794A794279466
:10030000979417944AE084DF0895872C762C652C07
:10031000542C432C322C212C102E0F2DFE2CED2C86
:10032000DC2CCB2CBA2CA92C4FEF942E4AE070DF9A
:100330000895122C232C342C452C562C672C782C09
:10034000892C9A2CAB2CBC2CCD2CDE2CEF2CF02E37
:100350004FEF042F4AE05CDF089558E0B0DF5A9574
:10036000E9F7089558E0BEDF5A95E9F7089558E097
:10037000CCDF5A95E9F7089558E0DBDF5A95E9F7A5
:020380000895DE
:00000001FF
